:100000000C9404010C942F010C942F010C942F01DB
:100010000C942F010C942F010C942F010C942F01A0
:100020000C942F010C942F010C942F010C942F0190
:100030000C942F010C942F010C942F010C942F0180
:100040000C942F010C942F010C942F010C942F0170
:100050000C942F010C942F010C942F010C94520638
:100060000C942F010C946A080C942F010C942F010E
:100070000C942F010C942F010C942F010C942F0140
:100080000C942F010C942F010C942F010C942F0130
:100090000C94AB080C942F010C942F010C942F019D
:1000A0000C942F010C942F010C942F010C942F0110
:1000B0000C942F010C942F010C942F010C942F0100
:1000C0000C942F010C942F010C942F010C94EC082C
:1000D0000C942F010C942F010C942D090C942F01DA
:1000E0000C942F0100002100240027002A002D007D
:1000F0003000330001010000040107010A01000083
:100100002200250028002B002E00310034000201BF
:100110000000050108010B0100002000230026005B
:1001200029002C002F00320000010000030106010D
:10013000090105050505070508080808020202026D
:100140000A0A080804040404010101010101010173
:100150000303030303030303040707070C0C0C0C3E
:100160000C0C0C0C02020202060606060606060627
:100170000B0B0B0B0B0B0B0B0102102020080810B4
:100180002040102040800201020108040201010207
:1001900004081020408080402010080402018004E0
:1001A000020180402010080402010804020101023B
:1001B0000408102040800102040810204080000044
:1001C000090A02080B0C0D070603040100000000D9
:1001D000000000000000000000000000000000001F
:1001E00000000000000000000000100F0E000000E2
:1001F00000000000000000000000000000000000FF
:1002000000000000FA057A0A11241FBECFEFD1E2E8
:10021000DEBFCDBF12E0A0E0B2E0ECE4FFE100E021
:100220000BBF02C007900D92AA37B107D9F71BBECA
:1002300014E0AAE7B2E001C01D92A83FB107E1F7C0
:1002400012E0C8E0D2E004C02297FE010E94A00F95
:10025000C430D107C9F70E944B060C94A40F0C942C
:100260000000FC0175836483138210828FE190E0AB
:100270009283818308950F931F938C01FC018481E5
:1002800095810E942205F801848195810E94FC04D9
:10029000F8018481958164E440810E94C704F801DB
:1002A000818192818F33910551F08F35910561F0F5
:1002B0004F9779F46EE570E080E090E00EC06CEB53
:1002C00070E080E090E009C067E771E080E090E0D6
:1002D00004C06EEE72E080E090E00E949A061F91EA
:1002E0000F910895EF92FF920F931F938C017B0162
:1002F000FC01848195810E942205F8018481958109
:10030000B7010E940105F8018481958164EB40E00A
:100310000E94C704F801848195810E942A04F82E66
:10032000F801848195810E94220580E0FF2009F474
:1003300081E01F910F91FF90EF900895CF92DF928F
:10034000EF92FF920F931F938C016B017A01FC01D6
:10035000848195810E942205F80184819581B601EE
:100360000E940105F801848195816EEB40E00E94B6
:10037000C704F801848195810E947004F70180838D
:10038000F801848195810E947004F7018183F8014E
:10039000848195810E947004F7018283F801848131
:1003A00095810E947004F7018383F801848195810F
:1003B0000E947004F7018483F801848195810E9472
:1003C0007004F7018583F801848195810E9470048F
:1003D000F7018683F801848195810E947004F701FA
:1003E0008783F801848195810E947004F7018087DA
:1003F000F801848195810E9422051F910F91FF9041
:10040000EF90DF90CF9008950F931F938A010E9481
:100410009E01C80168E00E94130420E0F801908565
:10042000891709F421E0822F1F910F9108956F928F
:100430007F928F929F92AF92BF92CF92DF92EF9274
:10044000FF920F931F93DF93CF93CDB7DEB729971A
:100450000FB6F894DEBF0FBECDBF8B01AE014F5F6C
:100460005F4F0E940402882309F491C09A8180E0C2
:10047000298130E0282B392BF8016081623231F07C
:10048000683221F0603109F081C04DC08D818F3319
:1004900049F1803420F48F3109F078C033C08F35B2
:1004A00079F08F3709F072C0B901882777FD809500
:1004B000982F0E94080E20E030E040E85DE30DC078
:1004C00035952795B901882777FD8095982F0E944B
:1004D000080E20E030E040E05EE30E94B80E9B0191
:1004E000AC0159C03595279535952795B9018827D1
:1004F00077FD8095982F0E94080E20E030E040E8BC
:100500005EE3EBCF53E0359527955A95E1F7B901B6
:10051000882777FD8095982F0E94080E20E030E014
:1005200040E05FE3DACFE88435952795B901882765
:1005300077FD8095982F0E94080E20E030E040E87B
:100540005EE30E94040D3B014C016E2D70E02F8193
:10055000621B7109882777FD8095982F0E94080EED
:100560005B016C01FF2400E010E0C801B7010E94AC
:10057000060E9B01AC01C601B5010E946D0D9B01E9
:10058000AC01C401B3010E94050DA9CF08C020E051
:1005900030EC49E754EC622F832F942F752F262FD0
:1005A000382F492F572FB901CA0129960FB6F89451
:1005B000DEBF0FBECDBFCF91DF911F910F91FF9096
:1005C000EF90DF90CF90BF90AF909F908F907F90F3
:1005D0006F9008950F931F938B01CB0167E00E94EA
:1005E000130420E0F8019781891709F421E0822F94
:1005F0001F910F910895EF92FF920F931F93CF9346
:10060000DF93EC017B01042F8C819D810E9401040A
:1006100010E005C0101789F01F5F011780F08C8172
:100620009D81B7010E945C05882349F0CE01B70186
:100630000E94EA02882399F3EDCF81E001C080E0B7
:10064000DF91CF911F910F91FF90EF900895EF925E
:10065000FF920F931F93DF93CF93CDB7DEB7289709
:100660000FB6F894DEBF0FBECDBF7C01462F8E01C2
:100670000F5F1F4FB8010E94FB02C701B8010E9423
:10068000170228960FB6F894DEBF0FBECDBFCF91EC
:10069000DF911F910F91FF90EF9008959F92AF927D
:1006A000BF92CF92DF92EF92FF920F931F93DF934F
:1006B000CF93CDB7DEB761970FB6F894DEBF0FBE0C
:1006C000CDBF8C01FC01848195810E9401047E01D3
:1006D0000894E11CF11CF9E0AF2EB12CAC0EBD1E4C
:1006E000EFE7CE2ED12C992493942DC0C801B701E9
:1006F0000E94EA02882339F1F8018081882341F4BD
:10070000C801B7010E947201882311F0F80190829C
:10071000C801B701A5010E949E018981803121F4A1
:10072000F801D282C1820BC08D85282F30E0F801FC
:10073000818192818217930714F432832183F80117
:1007400083818F5F8383F80184819581B7010E9443
:100750005C05882359F661960FB6F894DEBF0FBE8C
:10076000CDBFCF91DF911F910F91FF90EF90DF9060
:10077000CF90BF90AF909F900895DC011A966C9334
:100780001A97462F50E0CA018E5C9E4FFC012491BF
:100790001B962C931B9748585E4FFA0184911C9628
:1007A0008C931C9730E0220F331FF901E250FF4F6A
:1007B000859194911E969C938E931D97F901E85E06
:1007C000FE4F8591949150969C938E931F97F901BB
:1007D000EC51FF4F8591949152969C938E93519733
:1007E0008FEF18968C93189719961C92199787E09B
:1007F000FD01E80FF11D1082882311F08150F8CF20
:100800000895DC018FEF18968C93189719961C9217
:10081000199787E0FD01E80FF11D1082882311F080
:100820008150F8CF0895FC0140E030E05CE80EC054
:10083000208190E0822F8327369580FD35279F5FAA
:10084000983011F02695F6CF4F5F3196461780F31A
:10085000832F0895FF920F931F938C01DC01519613
:10086000ED91FC91529780811C969C911C97892B4D
:1008700080831D96ED91FC911E9790811C968C9122
:1008800080958923808381E090E00E94C406D8018E
:100890005196ED91FC91529790811C968C91809588
:1008A0008923808385E090E00E94C406D8011F96CA
:1008B000ED91FC9150972081FF2430E01C968C91A3
:1008C00090E028233923232B11F0FF24F39482E3B3
:1008D00090E00E94C4068F2D1F910F91FF90089504
:1008E000EF92FF920F931F93CF93DF937C0101E070
:1008F00010E0C0E0D0E0C7010E942A048111102B53
:10090000000F2196C830D105B1F7812FDF91CF912B
:100910001F910F91FF90EF900895EF92FF920F9328
:100920001F937C01062FDC015196ED91FC915297AB
:1009300080811C969C911C97892B80831D96ED913C
:10094000FC911E9790811C968C91809589238083C1
:10095000017010E0F801E359FD4F808190E00E94A2
:10096000C406D7011D96ED91FC911E9780811C96BF
:100970009C91892B808305591D4FF801808190E05F
:100980000E94C4061F910F91FF90EF900895CF929F
:10099000DF92EF92FF920F931F93CF93DF938C011F
:1009A000E42EFF24F394C0E0D0E0C62EDD2460E006
:1009B0008F2D90E08C219D21892B09F061E0C801E9
:1009C0000E948D04FF0C2196C830D10581F7EE20DE
:1009D00051F4F801828560E00E943307F8018285B6
:1009E00060E00E945307DF91CF911F910F91FF901C
:1009F000EF90DF90CF9008956CEC40E00E94C70428
:100A00000895EF92FF920F931F93CF93DF938C0182
:100A10007B0165E540E00E94C704C0E0D0E0F7013B
:100A2000EC0FFD1FC801608140E00E94C7042196C1
:100A3000C830D105A1F7DF91CF911F910F91FF90A1
:100A4000EF9008951F93CF93DF93EC018A8560E0C8
:100A50000E9433071DE7115010F410E028C082E017
:100A600090E00E94C4068A850E94DE07892B99F3D4
:100A70008A8560E00E9453078A8561E00E943307FF
:100A800084EF91E00E94C4068A8560E00E943307EB
:100A900081E490E00E94C4068A850E94DE0710E08F
:100AA000892B09F411E08AEE91E00E94C406812F9F
:100AB000DF91CF911F9108958F929F92AF92BF9235
:100AC000DF92EF92FF920F931F93CF93DF93EC018E
:100AD0005B018985882309F080C0CE010E94220530
:100AE000882309F47AC0CE0160EF40E00E94C70479
:100AF000DD24DA94EE24E39400E010E021E0822E7D
:100B0000912CCE010E942A04F82ECE010E942A04C4
:100B1000282F502F569556955695C801877090707E
:100B2000B40102C0660F771F8A95E2F7462FFF20B7
:100B300029F0222309F051C09F2D21C0222339F52D
:100B40008885992787FD90950817190711F4D8868D
:100B50000EC0081719076CF4262F30E0FE01E50FD0
:100B6000F11D808190E028233923232B19F091E097
:100B700003C0088790E0EE24D02E992341F0FE01B7
:100B8000E50FF11D8081842B8083F92E07C0FE01C3
:100B9000E50FF11D4095808148234083CE016F2DE4
:100BA0000E948D040F5F1F4F0034110509F0A9CF7B
:100BB000EE2011F081E0898720E030E0F501E20FBE
:100BC000F31FDE01A20FB31F8C9180832F5F3F4F75
:100BD0002830310599F781E001C080E0DF91CF91A5
:100BE0001F910F91FF90EF90DF90BF90AF909F907B
:100BF0008F9008950F931F930AE712E0C80165E3F1
:100C00000E94BD038DE892E0B8010E9431011F915E
:100C10000F910895EF92FF920F931F930CEA14E047
:100C2000C80160E072E00E94810B8DE8E82E82E04E
:100C3000F82EC7010E943B01C8016BE172E00E94DF
:100C4000A00BC80160E272E00E94810BC70160E066
:100C50000E942703AB01BC01C8010E94F90C1F913F
:100C60000F91FF90EF9008950F931F930CEA14E0FB
:100C7000C80140E855E260E070E00E946E09C801DA
:100C80006EE372E00E94A00B8DE892E00E944E039A
:100C90001F910F9108950E94D2060E9434060E946F
:100CA0000A06FDCF1F920F920FB60F9211242F93B9
:100CB0003F938F939F93AF93BF93809197029091AF
:100CC0009802A0919902B0919A0230919B020196EC
:100CD000A11DB11D232F2D5F2D3720F02D5701961B
:100CE000A11DB11D20939B028093970290939802BF
:100CF000A0939902B0939A028091930290919402EA
:100D0000A0919502B09196020196A11DB11D80930C
:100D1000930290939402A0939502B0939602BF9190
:100D2000AF919F918F913F912F910F900FBE0F9098
:100D30001F901895EF92FF920F931F937B018C01E8
:100D40008FB7F89440919702509198026091990260
:100D500070919A028FBF2FB7F8948091970290916B
:100D60009802A0919902B0919A022FBF841B950B13
:100D7000A60BB70BE816F9060A071B0760F71F91C9
:100D80000F91FF90EF900895019759F0FC01EE0F3D
:100D9000FF1FEE0FFF1F32978FB7F8943197F1F7CF
:100DA0008FBF0895789484B5826084BD84B58160D6
:100DB00084BD85B5826085BD85B5816085BDEEE663
:100DC000F0E0808181608083E1E8F0E080818260F2
:100DD0008083808181608083E0E8F0E080818160B1
:100DE0008083E1EBF0E0808184608083E0EBF0E0E1
:100DF000808181608083E1E9F0E08081826080838E
:100E0000808181608083E1EAF0E08081826080837C
:100E1000808181608083E1E2F1E080818260808373
:100E2000808181608083E0E9F0E08081816080835F
:100E3000E0EAF0E0808181608083E0E2F1E080819F
:100E400081608083EAE7F0E0808184608083808134
:100E500082608083808181608083808180688083DC
:100E60001092C1000895282F30E0C90188589E4F84
:100E7000FC0194912E5C3E4FF9018491882391F0FE
:100E8000E82FF0E0EE0FFF1FEC51FF4FA591B4915A
:100E9000662329F48C91909589238C9308958C91E5
:100EA000892B8C930895482F50E0CA0182549E4F9D
:100EB000FC012491CA0188589E4FFC0194914E5C1C
:100EC0005E4FFA013491332309F477C0222309F4E9
:100ED00062C0233021F4809180008F7705C02430D8
:100EE00031F4809180008F7D8093800054C0213048
:100EF00019F484B58F7704C0223021F484B58F7D36
:100F000084BD49C0263021F48091B0008F7705C0A0
:100F1000273031F48091B0008F7D8093B0003BC0CA
:100F2000283021F4809190008F7705C0293031F46A
:100F3000809190008F7D809390002DC02A3021F405
:100F400080919000877FF7CF2B3021F48091A00013
:100F50008F770BC02C3021F48091A0008F7D05C0CD
:100F60002D3031F48091A000877F8093A00013C0C2
:100F70002E3021F4809120018F770BC02F3021F487
:100F8000809120018F7D05C0203129F480912001BE
:100F9000877F80932001E32FF0E0EE0FFF1FE250E8
:100FA000FF4FA591B491662329F48C9190958923E4
:100FB0008C9308958C91892B8C930895682F70E001
:100FC000CB0182549E4FFC012491CB0188589E4F47
:100FD000FC0144916E5C7E4FFB019491992319F4BE
:100FE00020E030E075C0222309F462C0233021F4F0
:100FF000809180008F7705C0243031F4809180008B
:101000008F7D8093800054C0213019F484B58F7790
:1010100004C0223021F484B58F7D84BD49C02630C0
:1010200021F48091B0008F7705C0273031F4809192
:10103000B0008F7D8093B0003BC0283021F48091B8
:1010400090008F7705C0293031F4809190008F7D1A
:10105000809390002DC02A3021F480919000877FEA
:10106000F7CF2B3021F48091A0008F770BC02C306C
:1010700021F48091A0008F7D05C02D3031F4809146
:10108000A000877F8093A00013C02E3021F48091B0
:1010900020018F770BC02F3021F4809120018F7DAC
:1010A00005C0203129F480912001877F80932001A1
:1010B000892F90E0880F991F885E9E4FFC01A591B3
:1010C000B4918C9120E030E0842311F021E030E0F5
:1010D000C90108951F920F920FB60F920BB60F928F
:1010E00011242F933F934F935F936F937F938F932D
:1010F0009F93AF93BF93EF93FF934091C600E0910E
:101100001C03F0911D03CF01019660E870E00E947E
:101110003A0F9C0180911E0390911F0328173907F5
:1011200039F0E456FD4F408330931D0320931C0398
:10113000FF91EF91BF91AF919F918F917F916F91AF
:101140005F914F913F912F910F900BBE0F900FBE6B
:101150000F901F9018951F920F920FB60F920BB61B
:101160000F9211242F933F934F935F936F937F932D
:101170008F939F93AF93BF93EF93FF934091CE00D4
:10118000E091A003F091A103CF01019660E870E027
:101190000E943A0F9C018091A2039091A30328170B
:1011A000390739F0E05EFC4F40833093A103209370
:1011B000A003FF91EF91BF91AF919F918F917F918C
:1011C0006F915F914F913F912F910F900BBE0F90B8
:1011D0000FBE0F901F9018951F920F920FB60F928F
:1011E0000BB60F9211242F933F934F935F936F93FE
:1011F0007F938F939F93AF93BF93EF93FF93409110
:10120000D600E0912404F0912504CF01019660E816
:1012100070E00E943A0F9C0180912604909127046F
:101220002817390739F0EC55FC4F408330932504DB
:1012300020932404FF91EF91BF91AF919F918F91E3
:101240007F916F915F914F913F912F910F900BBEC6
:101250000F900FBE0F901F9018951F920F920FB610
:101260000F920BB60F9211242F933F934F935F93DE
:101270006F937F938F939F93AF93BF93EF93FF935E
:1012800040913601E091A804F091A904CF010196A4
:1012900060E870E00E943A0F9C018091AA0490914E
:1012A000AB042817390739F0E85DFB4F40833093D2
:1012B000A9042093A804FF91EF91BF91AF919F9152
:1012C0008F917F916F915F914F913F912F910F90EF
:1012D0000BBE0F900FBE0F901F9018955F926F92EC
:1012E0007F928F929F92AF92BF92CF92DF92EF92B6
:1012F000FF920F931F93CF93DF93EC013A014B01C1
:10130000413482E458078FE0680780E078070CF0EA
:101310007FC060E874E88EE190E0A40193010E9430
:101320006F0F2150304040405040CA01B90122E0C7
:1013300030E040E050E00E946F0F59016A01A601C1
:101340009501209530954095509594E0220F331FDC
:10135000441F551F9A95D1F760E074E284EF90E046
:101360000E946F0FCA01B9012FEF30E040E050E05A
:101370000E941B0FA40193010E946F0FC9018150AD
:101380009F4F181619061CF4522E5A9403C0552468
:101390005394521A60E079E08DE390E0A401930148
:1013A0000E946F0F2150304040405040CA01B901A7
:1013B00022E030E040E050E00E946F0F2095309531
:1013C0004095509583E0220F331F441F551F8A9587
:1013D000D1F760E074E284EF90E00E946F0FCA01E1
:1013E000B9012FEF30E040E050E00E941B0FA40154
:1013F00093010E946F0FC90181509F4F1816190663
:101400001CF4822F815002C081E0821B851500F5FB
:10141000E885F98581E090E00A8802C0880F991F6D
:101420000A94E2F7808360E079E08DE390E0A40124
:1014300093010E946F0F2150304040405040CA013C
:10144000B90122E030E040E050E00E946F0F04C09C
:10145000E885F98510829501EC81FD813083EE816C
:10146000FF812083EA85FB85208141E050E0CA01AD
:101470000E8402C0880F991F0A94E2F7282B20835C
:10148000EA85FB852081CA010F8402C0880F991F5D
:101490000A94E2F7282B2083EA85FB85808108885F
:1014A00002C0440F551F0A94E2F7842B8083DF911A
:1014B000CF911F910F91FF90EF90DF90CF90BF9051
:1014C000AF909F908F907F906F905F900895FC01F8
:1014D000A085B18521898C9190E0022E02C095955E
:1014E00087950A94E2F780FFF6CF0484F585E02D16
:1014F0006083089523E732E03093AD042093AC0479
:101500008CE992E09093AF048093AE0485EC90E078
:101510009093B1048093B00484EC90E09093B30472
:101520008093B20480EC90E09093B5048093B4046F
:1015300081EC90E09093B7048093B60486EC90E041
:101540009093B9048093B804E4E0E093BA0473E0A4
:101550007093BB0467E06093BC0455E05093BD04F6
:1015600041E04093BE043093C0042093BF0480E266
:1015700093E09093C2048093C1048DEC90E090932B
:10158000C4048093C3048CEC90E09093C6048093D1
:10159000C50488EC90E09093C8048093C70489EC5C
:1015A00090E09093CA048093C9048EEC90E09093ED
:1015B000CC048093CB04E093CD047093CE0460936D
:1015C000CF045093D0044093D1043093D30420939C
:1015D000D20484EA93E09093D5048093D40485EDFB
:1015E00090E09093D7048093D60484ED90E090939C
:1015F000D9048093D80480ED90E09093DB0480932D
:10160000DA0481ED90E09093DD048093DC0486EDB4
:1016100090E09093DF048093DE04E093E004709305
:10162000E1046093E2045093E3044093E4043093B4
:10163000E6042093E50488E294E09093E804809324
:10164000E70485E391E09093EA048093E90484E35E
:1016500091E09093EC048093EB0480E391E090930D
:10166000EE048093ED0481E391E09093F004809385
:10167000EF0486E391E09093F2048093F104E09309
:10168000F3047093F4046093F5045093F6044093CC
:10169000F70408950F931F93CF93DF938C01EB0111
:1016A00009C02196D801ED91FC910190F081E02DC7
:1016B000C801099568816623A1F7DF91CF911F9139
:1016C0000F910895EF92FF920F931F93CF93DF93A3
:1016D0008C017B01EA010CC0D7016D917D01D8011D
:1016E000ED91FC910190F081E02DC80109952197C1
:1016F000209791F7DF91CF911F910F91FF90EF907D
:101700000895DC01ED91FC910280F381E02D0995B3
:1017100008950F931F938C01DC01ED91FC910190D2
:10172000F081E02D6DE00995D801ED91FC910190DB
:10173000F081E02DC8016AE009951F910F9108958D
:101740000F931F938C010E94810BC8010E94890B8B
:101750001F910F9108952F923F924F925F926F9237
:101760007F928F929F92AF92BF92CF92DF92EF9231
:10177000FF920F931F93DF93CF93CDB7DEB7A09760
:101780000FB6F894DEBF0FBECDBF1C016A017B010E
:10179000411551056105710549F4DC01ED91FC919C
:1017A0000190F081E02D60E3099554C088249924CC
:1017B0005401422E55246624772401E010E00C0FDA
:1017C0001D1F080D191DC701B601A30192010E943A
:1017D0004D0FF80160830894811C911CA11CB11C61
:1017E000C701B601A30192010E944D0FC901DA01A0
:1017F0006C017D01C114D104E104F104F1F681E032
:10180000E82EF12CEC0EFD1EE80CF91C3E010894AC
:10181000611C711CD501C4010197A109B1096C01BA
:10182000C818D90814C0F601EE0DFF1D60816A309A
:1018300010F4605D01C0695CD101ED91FC910190F3
:10184000F081E02DC10109950894E108F1086E14BA
:101850007F0449F7A0960FB6F894DEBF0FBECDBF48
:10186000CF91DF911F910F91FF90EF90DF90CF907C
:10187000BF90AF909F908F907F906F905F904F90B0
:101880003F902F9008952AE00E94AB0B0895EF92AD
:10189000FF920F931F93CF93DF93EC017A018B019B
:1018A00077FF0FC0E881F9810190F081E02D6DE2B2
:1018B000099510950095F094E094E11CF11C011D30
:1018C000111DCE01B801A7012AE00E94AB0BDF91E8
:1018D000CF911F910F91FF90EF9008959F92AF923B
:1018E000BF92CF92DF92EF92FF920F931F93CF930D
:1018F000DF93EC017A018B01922ECB01BA0120E03B
:1019000030E040E050E00E94690D882364F4E881F3
:10191000F9810190F081E02DCE016DE2099517FB70
:10192000109517F9109520E030E040E05FE3AA241D
:101930000BC0CA01B90120E030E040E251E40E944E
:101940006D0D9B01AC01A394A91498F3C801B701D4
:101950000E94050D5B016C010E94DA0D7B018C0178
:10196000CE01B801A7010E94430C992029F0CE01B5
:1019700069E672E00E94810BC801B7010E94060E61
:101980009B01AC01C601B5010E94040D20C020E0FE
:1019900030E040E251E40E94B80E7B018C010E94CD
:1019A000D50D5B016C01CC24B7FCC094DC2CCE01BE
:1019B000B601A5010E94470CC601B5010E94080EA0
:1019C0009B01AC01C801B7010E94040D9A949920B3
:1019D000F1F6DF91CF911F910F91FF90EF90DF9083
:1019E000CF90BF90AF909F90089522E00E946E0C20
:1019F00008950F931F938C010E94F50CC8010E945B
:101A0000890B1F910F9108955058BB27AA270ED01C
:101A100075C166D130F06BD120F031F49F3F11F4E5
:101A20001EF45BC10EF4E095E7FB51C1E92F77D1BD
:101A300080F3BA17620773078407950718F071F4EB
:101A40009EF58FC10EF4E0950B2EBA2FA02D0B0141
:101A5000B90190010C01CA01A0011124FF27591BF3
:101A600099F0593F50F4503E68F11A16F040A22FF9
:101A7000232F342F4427585FF3CF4695379527956A
:101A8000A795F0405395C9F77EF41F16BA0B620B69
:101A9000730B840BBAF09150A1F0FF0FBB1F661FB0
:101AA000771F881FC2F70EC0BA0F621F731F841FF3
:101AB00048F4879577956795B795F7959E3F08F019
:101AC000B3CF9395880F08F09927EE0F97958795D8
:101AD0000895D9D008F481E008950CD00FC107D142
:101AE00040F0FED030F021F45F3F19F0F0C051110A
:101AF00039C1F3C014D198F39923C9F35523B1F335
:101B0000951B550BBB27AA2762177307840738F06C
:101B10009F5F5F4F220F331F441FAA1FA9F333D0CB
:101B20000E2E3AF0E0E830D091505040E695001C7F
:101B3000CAF729D0FE2F27D0660F771F881FBB1F3B
:101B4000261737074807AB07B0E809F0BB0B802D15
:101B5000BF01FF2793585F4F2AF09E3F510568F061
:101B6000B6C000C15F3FECF3983EDCF386957795F5
:101B70006795B795F7959F5FC9F7880F911D969563
:101B8000879597F90895E1E0660F771F881FBB1FBF
:101B9000621773078407BA0720F0621B730B840B6C
:101BA000BA0BEE1F88F7E095089504D06894B11140
:101BB000D9C00895BCD088F09F5790F0B92F9927CD
:101BC000B751A0F0D1F0660F771F881F991F1AF048
:101BD000BA95C9F712C0B13081F0C3D0B1E0089511
:101BE000C0C0672F782F8827B85F39F0B93FCCF392
:101BF000869577956795B395D9F73EF4909580953E
:101C0000709561957F4F8F4F9F4F0895E89409C05D
:101C100097FB3EF490958095709561957F4F8F4F1F
:101C20009F4F9923A9F0F92F96E9BB279395F69535
:101C3000879577956795B795F111F8CFFAF4BB0FB3
:101C400011F460FF1BC06F5F7F4F8F4F9F4F16C017
:101C5000882311F096E911C0772321F09EE8872FA1
:101C6000762F05C0662371F096E8862F70E060E05D
:101C70002AF09A95660F771F881FDAF7880F9695D6
:101C8000879597F90895990F0008550FAA0BE0E87A
:101C9000FEEF16161706E807F907C0F0121613062E
:101CA000E407F50798F0621B730B840B950B39F46E
:101CB0000A2661F0232B242B252B21F408950A26D4
:101CC00009F4A140A6958FEF811D811D089597F914
:101CD0009F6780E870E060E008959FEF80EC0895D2
:101CE00000240A94161617061806090608950024FB
:101CF0000A9412161306140605060895092E039475
:101D0000000C11F4882352F0BB0F40F4BF2B11F4E8
:101D100060FF04C06F5F7F4F8F4F9F4F089557FD47
:101D20009058440F551F59F05F3F71F04795880F49
:101D300097FB991F61F09F3F79F0879508951216E0
:101D400013061406551FF2CF4695F1DF08C016168C
:101D500017061806991FF1CF86957105610508943D
:101D60000895E894BB2766277727CB0197F9089554
:101D70000BD0C4CFB5DF28F0BADF18F0952309F0F7
:101D8000A6CFABCF1124EECFCADFA0F3959FD1F33E
:101D9000950F50E0551F629FF001729FBB27F00D19
:101DA000B11D639FAA27F00DB11DAA1F649F66276E
:101DB000B00DA11D661F829F2227B00DA11D621FBD
:101DC000739FB00DA11D621F839FA00D611D221F77
:101DD000749F3327A00D611D231F849F600D211D5B
:101DE000822F762F6A2F11249F5750408AF0E1F0FE
:101DF00088234AF0EE0FFF1FBB1F661F771F881F47
:101E000091505040A9F79E3F510570F060CFAACF86
:101E10005F3FECF3983EDCF3869577956795B79531
:101E2000F795E7959F5FC1F7FE2B880F911D96955B
:101E3000879597F90895629FD001739FF001829F63
:101E4000E00DF11D649FE00DF11D929FF00D839F49
:101E5000F00D749FF00D659FF00D9927729FB00DE6
:101E6000E11DF91F639FB00DE11DF91FBD01CF01F9
:101E70001124089597FB092E07260AD077FD04D078
:101E800049D006D000201AF4709561957F4F0895CF
:101E9000F6F7909581959F4F0895A1E21A2EAA1BFF
:101EA000BB1BFD010DC0AA1FBB1FEE1FFF1FA2170A
:101EB000B307E407F50720F0A21BB30BE40BF50B07
:101EC000661F771F881F991F1A9469F76095709590
:101ED000809590959B01AC01BD01CF01089597FBC2
:101EE000092E05260ED057FD04D0D7DF0AD0001CDE
:101EF00038F450954095309521953F4F4F4F5F4FA7
:101F00000895F6F790958095709561957F4F8F4F66
:101F10009F4F0895AA1BBB1B51E107C0AA1FBB1FFF
:101F2000A617B70710F0A61BB70B881F991F5A9565
:101F3000A9F780959095BC01CD010895EE0FFF1F84
:0C1F40000590F491E02D0994F894FFCF77
:101F4C0052657175657374696E672074656D706523
:101F5C00726174757265732E2E2E00444F4E4500BF
:101F6C0054656D706572617475726520666F722050
:101F7C0044657669636520312069733A20004461B9
:101F8C006C6C61732054656D7065726174757265EB
:101F9C0020494320436F6E74726F6C204C696272DF
:101FAC006172792044656D6F002E0005373705008E
:0A1FBC00000000670A4A0B620B00E8
:00000001FF
