:100000000C9404010C942F010C942F010C942F01DB
:100010000C942F010C942F010C942F010C942F01A0
:100020000C942F010C942F010C942F010C942F0190
:100030000C942F010C942F010C942F010C942F0180
:100040000C942F010C942F010C942F010C942F0170
:100050000C942F010C942F010C942F010C944E083A
:100060000C942F010C94660A0C942F010C942F0110
:100070000C942F010C942F010C942F010C942F0140
:100080000C942F010C942F010C942F010C942F0130
:100090000C94A70A0C942F010C942F010C942F019F
:1000A0000C942F010C942F010C942F010C942F0110
:1000B0000C942F010C942F010C942F010C942F0100
:1000C0000C942F010C942F010C942F010C94E80A2E
:1000D0000C942F010C942F010C94290B0C942F01DC
:1000E0000C942F0100002100240027002A002D007D
:1000F0003000330001010000040107010A01000083
:100100002200250028002B002E00310034000201BF
:100110000000050108010B0100002000230026005B
:1001200029002C002F00320000010000030106010D
:10013000090105050505070508080808020202026D
:100140000A0A080804040404010101010101010173
:100150000303030303030303040707070C0C0C0C3E
:100160000C0C0C0C02020202060606060606060627
:100170000B0B0B0B0B0B0B0B0102102020080810B4
:100180002040102040800201020108040201010207
:1001900004081020408080402010080402018004E0
:1001A000020180402010080402010804020101023B
:1001B0000408102040800102040810204080000044
:1001C000090A02080B0C0D070603040100000000D9
:1001D000000000000000000000000000000000001F
:1001E00000000000000000000000100F0E000000E2
:1001F00000000000000000000000000000000000FF
:1002000000000000C906760C11241FBECFEFD1E21A
:10021000DEBFCDBF13E0A0E0B2E0E4E8F3E200E02F
:100220000BBF02C007900D92AA36B107D9F71BBECB
:1002300015E0AAE6B3E001C01D92A23FB107E1F7C5
:1002400012E0C8E0D2E004C02297FE010E94BC1177
:10025000C430D107C9F70E9447080C94C0110C9410
:100260000000FC0175836483138210828FE190E0AB
:10027000928381830895FC0183810895FC0180812C
:10028000089526E636E646EE5FE30E94D41020E0AD
:1002900030E040E052E40E94210F08950F931F9335
:1002A0008C01FC01848195810E94F105F801848113
:1002B00095810E94CB05F8018481958164E4408199
:1002C0000E949605F801818192818F33910551F04A
:1002D0008F35910561F04F9779F46EE570E080E01D
:1002E00090E00EC06CEB70E080E090E009C067E742
:1002F00071E080E090E004C06EEE72E080E090E09B
:100300000E9496081F910F910895EF92FF920F930C
:100310001F938C017B01FC01848195810E94F10572
:10032000F80184819581B7010E94D005F80184818C
:10033000958164EB40E00E949605F80184819581E7
:100340000E94F904F82EF801848195810E94F1053C
:1003500080E0FF2009F481E01F910F91FF90EF9062
:100360000895EF92FF920F931F93CF93DF93EC01C9
:100370008B017A018C819D810E94F1058C819D8188
:10038000B8010E94D0058C819D816EE440E00E94FE
:1003900096058C819D81F701628140E00E9496055F
:1003A0008C819D81F701638140E00E949605F801F0
:1003B0008081803139F08C819D81F701648140E03A
:1003C0000E9496058C819D810E94F1058C819D8102
:1003D00068E448810E9496058881882331F06AE0AC
:1003E00070E080E090E00E9496088C819D810E94E0
:1003F000F105DF91CF911F910F91FF90EF9008953C
:10040000CF92DF92EF92FF920F931F938C016B01BB
:100410007A01FC01848195810E94F105F8018481B3
:100420009581B6010E94D005F801848195816EEB1B
:1004300040E00E949605F801848195810E943F0565
:10044000F7018083F801848195810E943F05F701BF
:100450008183F801848195810E943F05F7018283A1
:10046000F801848195810E943F05F7018383F8019B
:10047000848195810E943F05F7018483F80184817E
:1004800095810E943F05F7018583F801848195815C
:100490000E943F05F7018683F801848195810E94BF
:1004A0003F05F7018783F801848195810E943F050C
:1004B000F7018087F801848195810E94F1051F91E1
:1004C0000F91FF90EF90DF90CF900895DF93CF933F
:1004D000CDB7DEB729970FB6F894DEBF0FBECDBFFC
:1004E0009C01FB0180818031D1F0C901AE014F5FD9
:1004F0005F4F0E9400028D818F3371F0803418F4B9
:100500008F3161F40CC08F3519F08F3739F402C088
:100510008BE006C08CE004C08AE002C001C089E024
:1005200029960FB6F894DEBF0FBECDBFCF91DF91F5
:1005300008950F931F938A010E940002C80168E08A
:100540000E94E20420E0F8019085891709F421E077
:10055000822F1F910F9108956F927F928F929F9299
:10056000AF92BF92CF92DF92EF92FF920F931F93C1
:10057000DF93CF93CDB7DEB729970FB6F894DEBFE0
:100580000FBECDBF8B01AE014F5F5F4F0E9499023E
:10059000882309F491C09A8180E0298130E0282BDA
:1005A000392BF8016081623231F0683221F060311C
:1005B00009F081C04DC08D818F3349F1803420F422
:1005C0008F3109F078C033C08F3579F08F3709F05B
:1005D00072C0B901882777FD8095982F0E9424105A
:1005E00020E030E040E85DE30DC035952795B90186
:1005F000882777FD8095982F0E94241020E030E016
:1006000040E05EE30E94D4109B01AC0159C03595D7
:10061000279535952795B901882777FD8095982FDF
:100620000E94241020E030E040E85EE3EBCF53E08E
:10063000359527955A95E1F7B901882777FD80957B
:10064000982F0E94241020E030E040E05FE3DACFF2
:10065000E88435952795B901882777FD8095982FEF
:100660000E94241020E030E040E85EE30E94200F6A
:100670003B014C016E2D70E02F81621B71098827B0
:1006800077FD8095982F0E9424105B016C01FF2458
:1006900000E010E0C801B7010E9422109B01AC01EC
:1006A000C601B5010E94890F9B01AC01C401B301D1
:1006B0000E94210FA9CF08C020E030EC49E754EC9C
:1006C000622F832F942F752F262F382F492F572FC6
:1006D000B901CA0129960FB6F894DEBF0FBECDBF8F
:1006E000CF91DF911F910F91FF90EF90DF90CF900E
:1006F000BF90AF909F908F907F906F900895DF9301
:10070000CF93CDB7DEB729970FB6F894DEBF0FBEF3
:10071000CDBFAE014F5F5F4F0E94990229960FB681
:10072000F894DEBF0FBECDBFCF91DF910895CF9279
:10073000DF92FF920F931F93DF93CF93CDB7DEB776
:1007400029970FB6F894DEBF0FBECDBF6C018B01A9
:10075000F42E0E947F03882329F1F80180818031E3
:1007600009F1C601B801AE014F5F5F4F0E94000260
:10077000FAE0FF1661F0FF1660F08BE0F81629F042
:10078000ECE0FE1631F48FE705C08FE503C08FE380
:1007900001C08FE18D83C601B801AE014F5F5F4F8D
:1007A0000E94B10129960FB6F894DEBF0FBECDBFEF
:1007B000CF91DF911F910F91FF90DF90CF9008951F
:1007C0000F931F938B01CB0167E00E94E20420E0AE
:1007D000F8019781891709F421E0822F1F910F9169
:1007E0000895EF92FF920F931F93CF93DF93EC0145
:1007F0007B01042F8C819D810E94D00410E005C0F4
:10080000101789F01F5F011780F08C819D81B7015F
:100810000E942B06882349F0CE01B7010E94E00315
:10082000882399F3EDCF81E001C080E0DF91CF9183
:100830001F910F91FF90EF9008959F92AF92BF92FA
:10084000CF92DF92EF92FF920F931F93DF93CF939C
:10085000CDB7DEB761970FB6F894DEBF0FBECDBF40
:100860008C01FC01848195810E94D0047E01089452
:10087000E11CF11CF9E0AF2EB12CAC0EBD1EEFE770
:10088000CE2ED12C992493942DC0C801B7010E947B
:10089000E003882339F1F8018081882341F4C801FD
:1008A000B7010E948501882311F0F8019082C801E8
:1008B000B701A5010E9400028981803121F4F8016D
:1008C000D282C1820BC08D85282F30E0F801818152
:1008D00092818217930714F432832183F801838174
:1008E0008F5F8383F80184819581B7010E942B0675
:1008F000882359F661960FB6F894DEBF0FBECDBFC0
:10090000CF91DF911F910F91FF90EF90DF90CF90EB
:10091000BF90AF909F900895DC011A966C931A9740
:10092000462F50E0CA018E5C9E4FFC0124911B961D
:100930002C931B9748585E4FFA0184911C968C9318
:100940001C9730E0220F331FF901E250FF4F8591D1
:1009500094911E969C938E931D97F901E85EFE4F2D
:100960008591949150969C938E931F97F901EC5129
:10097000FF4F8591949152969C938E9351978FEF50
:1009800018968C93189719961C92199787E0FD0179
:10099000E80FF11D1082882311F08150F8CF0895DF
:1009A000DC018FEF18968C93189719961C92199763
:1009B00087E0FD01E80FF11D1082882311F08150BE
:1009C000F8CF0895FC0140E030E05CE80EC02081E3
:1009D00090E0822F8327369580FD35279F5F9830E2
:1009E00011F02695F6CF4F5F3196461780F3832F8F
:1009F0000895FF920F931F938C01DC015196ED91A6
:100A0000FC91529780811C969C911C97892B808326
:100A10001D96ED91FC911E9790811C968C9180956E
:100A20008923808381E090E00E94C008D80151961C
:100A3000ED91FC91529790811C968C918095892321
:100A4000808385E090E00E94C008D8011F96ED9158
:100A5000FC9150972081FF2430E01C968C9190E00F
:100A600028233923232B11F0FF24F39482E390E011
:100A70000E94C0088F2D1F910F91FF900895EF9253
:100A8000FF920F931F93CF93DF937C0101E010E05F
:100A9000C0E0D0E0C7010E94F9048111102B000FC3
:100AA0002196C830D105B1F7812FDF91CF911F91E9
:100AB0000F91FF90EF900895EF92FF920F931F9385
:100AC0007C01062FDC015196ED91FC9152978081BB
:100AD0001C969C911C97892B80831D96ED91FC910F
:100AE0001E9790811C968C9180958923808301703C
:100AF00010E0F801E35AFC4F808190E00E94C008AA
:100B0000D7011D96ED91FC911E9780811C969C91BA
:100B1000892B8083055A1C4FF801808190E00E9448
:100B2000C0081F910F91FF90EF900895CF92DF9230
:100B3000EF92FF920F931F93CF93DF938C01E42EDC
:100B4000FF24F394C0E0D0E0C62EDD2460E08F2DBA
:100B500090E08C219D21892B09F061E0C8010E9461
:100B60005C05FF0C2196C830D10581F7EE2051F4C9
:100B7000F801828560E00E942F09F801828560E01B
:100B80000E944F09DF91CF911F910F91FF90EF903D
:100B9000DF90CF9008956CEC40E00E949605089598
:100BA000EF92FF920F931F93CF93DF938C017B0102
:100BB00065E540E00E949605C0E0D0E0F701EC0F4B
:100BC000FD1FC801608140E00E9496052196C83053
:100BD000D105A1F7DF91CF911F910F91FF90EF9079
:100BE00008951F93CF93DF93EC018A8560E00E9404
:100BF0002F091DE7115010F410E028C082E090E0AA
:100C00000E94C0088A850E94DA09892B99F38A8597
:100C100060E00E944F098A8561E00E942F0984EFFD
:100C200091E00E94C0088A8560E00E942F0981E45B
:100C300090E00E94C0088A850E94DA0910E0892BA2
:100C400009F411E08AEE91E00E94C008812FDF9143
:100C5000CF911F9108958F929F92AF92BF92DF9292
:100C6000EF92FF920F931F93CF93DF93EC015B0101
:100C70008985882309F080C0CE010E94F105882370
:100C800009F47AC0CE0160EF40E00E949605DD24B1
:100C9000DA94EE24E39400E010E021E0822E912C1F
:100CA000CE010E94F904F82ECE010E94F904282FEB
:100CB000502F569556955695C80187709070B4017F
:100CC00002C0660F771F8A95E2F7462FFF2029F0B2
:100CD000222309F051C09F2D21C0222339F5888598
:100CE000992787FD90950817190711F4D8860EC02B
:100CF000081719076CF4262F30E0FE01E50FF11DEF
:100D0000808190E028233923232B19F091E003C040
:100D1000088790E0EE24D02E992341F0FE01E50FE4
:100D2000F11D8081842B8083F92E07C0FE01E50F21
:100D3000F11D4095808148234083CE016F2D0E9494
:100D40005C050F5F1F4F0034110509F0A9CFEE209D
:100D500011F081E0898720E030E0F501E20FF31F18
:100D6000DE01A20FB31F8C9180832F5F3F4F28308D
:100D7000310599F781E001C080E0DF91CF911F91AB
:100D80000F91FF90EF90DF90BF90AF909F908F906A
:100D900008950F931F930AE613E0C80165E30E94CC
:100DA0008C048DE793E0B8010E9431011F910F91EF
:100DB00008950F931F93CF93DF938C01C0E0D0E091
:100DC000F801EC0FFD1F408150E060E070E086EA22
:100DD00095E020E130E00E946A0EC73031F086EAEB
:100DE00095E060E072E00E947D0D2196C830D1054B
:100DF00039F7DF91CF911F910F910895CF92DF9234
:100E0000EF92FF920F931F93BC018DE793E00E9436
:100E1000AC026B017C0106EA15E0C80162E072E0F9
:100E20000E947D0DC801B701A6010E94110FC801E3
:100E30006BE072E00E947D0DC701B6010E94410186
:100E4000AB01BC01C8010E94150F1F910F91FF90CB
:100E5000EF90DF90CF900895EF92FF920F931F9342
:100E600086EA95E065E172E00E947D0D8DE793E0F2
:100E70000E944E0186EA95E060E372E00E949C0DBC
:100E8000EE24FF24870120C08DE793E065E873E03E
:100E90004E2D0E94F103882391F086EA95E065E3E8
:100EA00072E00E947D0D86EA95E0B801A7012AE074
:100EB00030E00E947F0E85E893E00E94FE060894D1
:100EC000E11CF11C011D111D80918303909184038D
:100ED000E816F906CCF21F910F91FF90EF9008955C
:100EE000EF92FF920F931F9386EA95E040E855E258
:100EF00060E070E00E946A0B86EA95E06EE472E0C2
:100F00000E949C0D8DE793E00E941D048DE793E005
:100F10000E943B01809383031092840386EA95E04C
:100F200069E772E00E947D0D86EA95E06DE872E067
:100F30000E947D0D4091830350918403662757FDE5
:100F40006095762F86EA95E02AE030E00E946A0EEE
:100F500086EA95E064E972E00E949C0D86EA95E0DD
:100F60006EE972E00E947D0D8DE793E00E943E01E4
:100F7000882329F086EA95E062EB72E004C086EAF5
:100F800095E065EB72E00E949C0DEE24FF24870142
:100F900071C08DE793E065E873E04E2D0E94F10388
:100FA000882309F44EC086EA95E069EB72E00E945E
:100FB0007D0D86EA95E0B801A7012AE030E00E94A5
:100FC0006A0E86EA95E067EC72E00E947D0D85E886
:100FD00093E00E94D90686EA95E00E94850D86EA94
:100FE00095E067ED72E00E947D0D86EA95E049E0AC
:100FF00050E060E070E02AE030E00E947F0E8DE774
:1010000093E065E873E049E00E94970386EA95E083
:101010006EEE72E00E947D0D8DE793E065E873E06F
:101020000E946602482F50E060E070E086EA95E09A
:101030002AE030E00E946A0E86EA95E00E94850D63
:1010400014C086EA95E06BE073E00E947D0D86EAAD
:1010500095E0B801A7012AE030E00E946A0E86EA16
:1010600095E062E273E00E947D0D0894E11CF11CA2
:10107000011D111D8091830390918403E816F906E8
:101080000CF487CF1F910F91FF90EF9008950E946D
:10109000CE080E9470070E942C07FDCF1F920F926E
:1010A0000FB60F9211242F933F938F939F93AF937B
:1010B000BF938091910390919203A0919303B0917B
:1010C0009403309195030196A11DB11D232F2D5F2F
:1010D0002D3720F02D570196A11DB11D20939503AA
:1010E0008093910390939203A0939303B0939403FE
:1010F00080918D0390918E03A0918F03B091900306
:101100000196A11DB11D80938D0390938E03A09332
:101110008F03B0939003BF91AF919F918F913F91B7
:101120002F910F900FBE0F901F901895EF92FF9286
:101130000F931F937B018C018FB7F894409191031B
:101140005091920360919303709194038FBF2FB7D6
:10115000F8948091910390919203A0919303B091A0
:1011600094032FBF841B950BA60BB70BE816F9064B
:101170000A071B0760F71F910F91FF90EF900895EA
:10118000019759F0FC01EE0FFF1FEE0FFF1F329782
:101190008FB7F8943197F1F78FBF0895789484B59D
:1011A000826084BD84B5816084BD85B5826085BD63
:1011B00085B5816085BDEEE6F0E080818160808349
:1011C000E1E8F0E0808182608083808181608083BB
:1011D000E0E8F0E0808181608083E1EBF0E08081F5
:1011E00084608083E0EBF0E0808181608083E1E9CE
:1011F000F0E0808182608083808181608083E1EA89
:10120000F0E0808182608083808181608083E1E280
:10121000F1E0808182608083808181608083E0E969
:10122000F0E0808181608083E0EAF0E0808181608D
:101230008083E0E2F1E0808181608083EAE7F0E092
:1012400080818460808380818260808380818160EE
:1012500080838081806880831092C1000895282F48
:1012600030E0C90188589E4FFC0194912E5C3E4F9E
:10127000F9018491882391F0E82FF0E0EE0FFF1F31
:10128000EC51FF4FA591B491662329F48C91909570
:1012900089238C9308958C91892B8C930895482FE2
:1012A00050E0CA0182549E4FFC012491CA01885823
:1012B0009E4FFC0194914E5C5E4FFA0134913323B2
:1012C00009F477C0222309F462C0233021F480910D
:1012D00080008F7705C0243031F4809180008F7DAD
:1012E0008093800054C0213019F484B58F7704C0F6
:1012F000223021F484B58F7D84BD49C0263021F48D
:101300008091B0008F7705C0273031F48091B00014
:101310008F7D8093B0003BC0283021F480919000F5
:101320008F7705C0293031F4809190008F7D8093B4
:1013300090002DC02A3021F480919000877FF7CF54
:101340002B3021F48091A0008F770BC02C3021F43A
:101350008091A0008F7D05C02D3031F48091A000D8
:10136000877F8093A00013C02E3021F4809120014C
:101370008F770BC02F3021F4809120018F7D05C025
:10138000203129F480912001877F80932001E32F71
:10139000F0E0EE0FFF1FE250FF4FA591B4916623DE
:1013A00029F48C91909589238C9308958C91892BA5
:1013B0008C930895682F70E0CB0182549E4FFC01FE
:1013C0002491CB0188589E4FFC0144916E5C7E4F66
:1013D000FB019491992319F420E030E075C0222399
:1013E00009F462C0233021F4809180008F7705C01A
:1013F000243031F4809180008F7D8093800054C030
:10140000213019F484B58F7704C0223021F484B5DB
:101410008F7D84BD49C0263021F48091B0008F7744
:1014200005C0273031F48091B0008F7D8093B000EB
:101430003BC0283021F4809190008F7705C029307F
:1014400031F4809190008F7D809390002DC02A30E0
:1014500021F480919000877FF7CF2B3021F4809189
:10146000A0008F770BC02C3021F48091A0008F7DDD
:1014700005C02D3031F48091A000877F8093A000BB
:1014800013C02E3021F4809120018F770BC02F30B4
:1014900021F4809120018F7D05C0203129F48091B5
:1014A0002001877F80932001892F90E0880F991F6A
:1014B000885E9E4FFC01A591B4918C9120E030E0B4
:1014C000842311F021E030E0C90108951F920F92AA
:1014D0000FB60F920BB60F9211242F933F934F9399
:1014E0005F936F937F938F939F93AF93BF93EF938C
:1014F000FF934091C600E0911604F0911704CF01CC
:10150000019660E870E00E9456119C0180911804D9
:10151000909119042817390739F0EA56FC4F408397
:101520003093170420931604FF91EF91BF91AF9170
:101530009F918F917F916F915F914F913F912F91EB
:101540000F900BBE0F900FBE0F901F9018951F921B
:101550000F920FB60F920BB60F9211242F933F9359
:101560004F935F936F937F938F939F93AF93BF93AB
:10157000EF93FF934091CE00E0919A04F0919B0489
:10158000CF01019660E870E00E9456119C018091A5
:101590009C0490919D042817390739F0E65EFB4FB3
:1015A000408330939B0420939A04FF91EF91BF9165
:1015B000AF919F918F917F916F915F914F913F91EB
:1015C0002F910F900BBE0F900FBE0F901F9018958C
:1015D0001F920F920FB60F920BB60F9211242F93FA
:1015E0003F934F935F936F937F938F939F93AF93AB
:1015F000BF93EF93FF934091D600E0911E05F091C9
:101600001F05CF01019660E870E00E9456119C0111
:1016100080912005909121052817390739F0E2566D
:10162000FB4F408330931F0520931E05FF91EF91E0
:10163000BF91AF919F918F917F916F915F914F91EA
:101640003F912F910F900BBE0F900FBE0F901F90E8
:1016500018951F920F920FB60F920BB60F9211248E
:101660002F933F934F935F936F937F938F939F93AA
:10167000AF93BF93EF93FF9340913601E091A205A2
:10168000F091A305CF01019660E870E00E94561129
:101690009C018091A4059091A5052817390739F080
:1016A000EE5DFA4F40833093A3052093A205FF918E
:1016B000EF91BF91AF919F918F917F916F915F91CA
:1016C0004F913F912F910F900BBE0F900FBE0F9037
:1016D0001F9018955F926F927F928F929F92AF9218
:1016E000BF92CF92DF92EF92FF920F931F93CF930F
:1016F000DF93EC013A014B01413482E458078FE05B
:10170000680780E078070CF07FC060E874E88EE13D
:1017100090E0A40193010E948B1121503040404081
:101720005040CA01B90122E030E040E050E00E94A0
:101730008B1159016A01A6019501209530954095BC
:10174000509594E0220F331F441F551F9A95D1F7EF
:1017500060E074E284EF90E00E948B11CA01B9014D
:101760002FEF30E040E050E00E943711A4019301D8
:101770000E948B11C90181509F4F181619061CF445
:10178000522E5A9403C055245394521A60E079E0C3
:101790008DE390E0A40193010E948B112150304011
:1017A00040405040CA01B90122E030E040E050E042
:1017B0000E948B11209530954095509583E0220F23
:1017C000331F441F551F8A95D1F760E074E284EF00
:1017D00090E00E948B11CA01B9012FEF30E040E088
:1017E00050E00E943711A40193010E948B11C9019E
:1017F00081509F4F181619061CF4822F815002C089
:1018000081E0821B851500F5E885F98581E090E08F
:101810000A8802C0880F991F0A94E2F7808360E06B
:1018200079E08DE390E0A40193010E948B11215097
:10183000304040405040CA01B90122E030E040E071
:1018400050E00E948B1104C0E885F9851082950153
:10185000EC81FD813083EE81FF812083EA85FB8569
:10186000208141E050E0CA010E8402C0880F991F18
:101870000A94E2F7282B2083EA85FB852081CA01A0
:101880000F8402C0880F991F0A94E2F7282B208347
:10189000EA85FB858081088802C0440F551F0A94A1
:1018A000E2F7842B8083DF91CF911F910F91FF90FE
:1018B000EF90DF90CF90BF90AF909F908F907F90F0
:1018C0006F905F900895FC01A085B18521898C916E
:1018D00090E0022E02C0959587950A94E2F780FF6A
:1018E000F6CF0484F585E02D6083089523E633E088
:1018F0003093A7052093A60586E993E09093A90568
:101900008093A80585EC90E09093AB058093AA05A1
:1019100084EC90E09093AD058093AC0580EC90E072
:101920009093AF058093AE0581EC90E09093B10564
:101930008093B00586EC90E09093B3058093B20558
:10194000E4E0E093B40573E07093B50567E060935D
:10195000B60555E05093B70541E04093B805309384
:10196000BA052093B9058AE194E09093BC05809371
:10197000BB058DEC90E09093BE058093BD058CEC8B
:1019800090E09093C0058093BF0588EC90E0909321
:10199000C2058093C10589EC90E09093C4058093C3
:1019A000C3058EEC90E09093C6058093C505E09347
:1019B000C7057093C8056093C9055093CA05409345
:1019C000CB053093CD052093CC058EE994E0909320
:1019D000CF058093CE0585ED90E09093D10580935F
:1019E000D00584ED90E09093D3058093D20580EDEF
:1019F00090E09093D5058093D40581ED90E090938D
:101A0000D7058093D60586ED90E09093D905809315
:101A1000D805E093DA057093DB056093DC055093FD
:101A2000DD054093DE053093E0052093DF0582E27B
:101A300095E09093E2058093E10585E391E0909332
:101A4000E4058093E30584E391E09093E6058093B9
:101A5000E50580E391E09093E8058093E70581E355
:101A600091E09093EA058093E90586E391E09093F5
:101A7000EC058093EB05E093ED057093EE05609324
:101A8000EF055093F0054093F10508950F931F93D0
:101A9000CF93DF938C01EB0109C02196D801ED9122
:101AA000FC910190F081E02DC801099568816623C1
:101AB000A1F7DF91CF911F910F910895EF92FF92BF
:101AC0000F931F93CF93DF938C017B01EA010CC02E
:101AD000D7016D917D01D801ED91FC910190F081CC
:101AE000E02DC80109952197209791F7DF91CF91BB
:101AF0001F910F91FF90EF900895DC01ED91FC9103
:101B00000280F381E02D099508950F931F938C01B6
:101B1000DC01ED91FC910190F081E02D6DE00995E3
:101B2000D801ED91FC910190F081E02DC8016AE0AF
:101B300009951F910F9108950F931F938C010E9497
:101B40007D0DC8010E94850D1F910F9108952F9260
:101B50003F924F925F926F927F928F929F92AF923D
:101B6000BF92CF92DF92EF92FF920F931F93DF937A
:101B7000CF93CDB7DEB7A0970FB6F894DEBF0FBEF8
:101B8000CDBF1C016A017B0141155105610571053D
:101B900049F4DC01ED91FC910190F081E02D60E3CE
:101BA000099554C0882499245401422E5524662452
:101BB000772401E010E00C0F1D1F080D191DC7014F
:101BC000B601A30192010E946911F8016083089493
:101BD000811C911CA11CB11CC701B601A30192017B
:101BE0000E946911C901DA016C017D01C114D1049F
:101BF000E104F104F1F681E0E82EF12CEC0EFD1E7B
:101C0000E80CF91C3E010894611C711CD501C4014B
:101C10000197A109B1096C01C818D90814C0F601CF
:101C2000EE0DFF1D60816A3010F4605D01C0695CDB
:101C3000D101ED91FC910190F081E02DC101099558
:101C40000894E108F1086E147F0449F7A0960FB6D6
:101C5000F894DEBF0FBECDBFCF91DF911F910F91E2
:101C6000FF90EF90DF90CF90BF90AF909F908F90BC
:101C70007F906F905F904F903F902F9008952AE053
:101C80000E94A70D0895EF92FF920F931F93CF9399
:101C9000DF93EC017A018B0177FF0FC0E881F981B6
:101CA0000190F081E02D6DE2099510950095F0947A
:101CB000E094E11CF11C011D111DCE01B801A7012A
:101CC0002AE00E94A70DDF91CF911F910F91FF9005
:101CD000EF900895DC012115310541F4ED91FC915F
:101CE0000190F081E02D642F099508952A30310587
:101CF00019F40E94430E08950E94A70D08950F93B2
:101D00001F938C010E946A0EC8010E94850D1F91CD
:101D10000F9108959F92AF92BF92CF92DF92EF9270
:101D2000FF920F931F93CF93DF93EC017A018B0106
:101D3000922ECB01BA0120E030E040E050E00E945A
:101D4000850F882364F4E881F9810190F081E02D0A
:101D5000CE016DE2099517FB109517F9109520E05B
:101D600030E040E05FE3AA240BC0CA01B90120E0E3
:101D700030E040E251E40E94890F9B01AC01A39442
:101D8000A91498F3C801B7010E94210F5B016C01EF
:101D90000E94F60F7B018C01CE01B801A7010E94C1
:101DA0003F0E992029F0CE0169E573E00E947D0D78
:101DB000C801B7010E9422109B01AC01C601B50108
:101DC0000E94200F20C020E030E040E251E40E9459
:101DD000D4107B018C010E94F10F5B016C01CC24BB
:101DE000B7FCC094DC2CCE01B601A5010E94430EC5
:101DF000C601B5010E9424109B01AC01C801B701C6
:101E00000E94200F9A949920F1F6DF91CF911F91B3
:101E10000F91FF90EF90DF90CF90BF90AF909F9089
:101E2000089522E00E948A0E08950F931F938C015B
:101E30000E94110FC8010E94850D1F910F910895F6
:101E40005058BB27AA270ED075C166D130F06BD190
:101E500020F031F49F3F11F41EF45BC10EF4E095C5
:101E6000E7FB51C1E92F77D180F3BA1762077307F7
:101E70008407950718F071F49EF58FC10EF4E09574
:101E80000B2EBA2FA02D0B01B90190010C01CA0134
:101E9000A0011124FF27591B99F0593F50F4503EDF
:101EA00068F11A16F040A22F232F342F4427585FD1
:101EB000F3CF469537952795A795F0405395C9F7E9
:101EC0007EF41F16BA0B620B730B840BBAF09150A1
:101ED000A1F0FF0FBB1F661F771F881FC2F70EC040
:101EE000BA0F621F731F841F48F487957795679513
:101EF000B795F7959E3F08F0B3CF9395880F08F0FC
:101F00009927EE0F979587950895D9D008F481E029
:101F100008950CD00FC107D140F0FED030F021F46D
:101F20005F3F19F0F0C0511139C1F3C014D198F3DB
:101F30009923C9F35523B1F3951B550BBB27AA274A
:101F400062177307840738F09F5F5F4F220F331FBC
:101F5000441FAA1FA9F333D00E2E3AF0E0E830D088
:101F600091505040E695001CCAF729D0FE2F27D08B
:101F7000660F771F881FBB1F261737074807AB0759
:101F8000B0E809F0BB0B802DBF01FF2793585F4FCE
:101F90002AF09E3F510568F0B6C000C15F3FECF3E8
:101FA000983EDCF3869577956795B795F7959F5F93
:101FB000C9F7880F911D9695879597F90895E1E0E7
:101FC000660F771F881FBB1F621773078407BA0746
:101FD00020F0621B730B840BBA0BEE1F88F7E095A1
:101FE000089504D06894B111D9C00895BCD088F088
:101FF0009F5790F0B92F9927B751A0F0D1F0660FF5
:10200000771F881F991F1AF0BA95C9F712C0B1300F
:1020100081F0C3D0B1E00895C0C0672F782F882722
:10202000B85F39F0B93FCCF3869577956795B3954E
:10203000D9F73EF490958095709561957F4F8F4FBD
:102040009F4F0895E89409C097FB3EF490958095C2
:10205000709561957F4F8F4F9F4F9923A9F0F92F6E
:1020600096E9BB279395F695879577956795B795EC
:10207000F111F8CFFAF4BB0F11F460FF1BC06F5FD2
:102080007F4F8F4F9F4F16C0882311F096E911C0E4
:10209000772321F09EE8872F762F05C0662371F005
:1020A00096E8862F70E060E02AF09A95660F771F19
:1020B000881FDAF7880F9695879597F90895990FF5
:1020C0000008550FAA0BE0E8FEEF16161706E80702
:1020D000F907C0F012161306E407F50798F0621B23
:1020E000730B840B950B39F40A2661F0232B242BF8
:1020F000252B21F408950A2609F4A140A6958FEF17
:10210000811D811D089597F99F6780E870E060E068
:1021100008959FEF80EC089500240A941616170680
:1021200018060906089500240A94121613061406C8
:1021300005060895092E0394000C11F4882352F02B
:10214000BB0F40F4BF2B11F460FF04C06F5F7F4FE3
:102150008F4F9F4F089557FD9058440F551F59F0CA
:102160005F3F71F04795880F97FB991F61F09F3F84
:1021700079F087950895121613061406551FF2CFAD
:102180004695F1DF08C0161617061806991FF1CFFD
:1021900086957105610508940895E894BB27662724
:1021A0007727CB0197F908950BD0C4CFB5DF28F07E
:1021B000BADF18F0952309F0A6CFABCF1124EECFEC
:1021C000CADFA0F3959FD1F3950F50E0551F629F92
:1021D000F001729FBB27F00DB11D639FAA27F00D80
:1021E000B11DAA1F649F6627B00DA11D661F829FA7
:1021F0002227B00DA11D621F739FB00DA11D621F8C
:10220000839FA00D611D221F749F3327A00D611DA8
:10221000231F849F600D211D822F762F6A2F11248A
:102220009F5750408AF0E1F088234AF0EE0FFF1FDD
:10223000BB1F661F771F881F91505040A9F79E3F14
:10224000510570F060CFAACF5F3FECF3983EDCF30E
:10225000869577956795B795F795E7959F5FC1F751
:10226000FE2B880F911D9695879597F90895629F8B
:10227000D001739FF001829FE00DF11D649FE00D7E
:10228000F11D929FF00D839FF00D749FF00D659FDF
:10229000F00D9927729FB00DE11DF91F639FB00DDE
:1022A000E11DF91FBD01CF011124089597FB092EEF
:1022B00007260AD077FD04D049D006D000201AF4B2
:1022C000709561957F4F0895F6F7909581959F4F92
:1022D0000895A1E21A2EAA1BBB1BFD010DC0AA1F67
:1022E000BB1FEE1FFF1FA217B307E407F50720F07F
:1022F000A21BB30BE40BF50B661F771F881F991FFA
:102300001A9469F760957095809590959B01AC0142
:10231000BD01CF01089597FB092E05260ED057FD6C
:1023200004D0D7DF0AD0001C38F450954095309582
:1023300021953F4F4F4F5F4F0895F6F79095809549
:10234000709561957F4F8F4F9F4F0895AA1BBB1BC0
:1023500051E107C0AA1FBB1FA617B70710F0A61BA5
:10236000B70B881F991F5A95A9F780959095BC01C6
:10237000CD010895EE0FFF1F0590F491E02D099413
:04238000F894FFCFFF
:10238400200054656D7020433A20002054656D7020
:1023940020463A200052657175657374696E672032
:1023A40074656D7065726174757265732E2E2E007E
:1023B400444F4E450054656D706572617475726565
:1023C40020666F72206465766963653A2000446113
:1023D4006C6C61732054656D70657261747572659F
:1023E40020494320436F6E74726F6C204C69627293
:1023F4006172792044656D6F004C6F636174696E1E
:102404006720646576696365732E2E2E00466F75AA
:102414006E64200020646576696365732E005061E4
:1024240072617369746520706F7765722069733A9D
:1024340020004F4E004F464600466F756E64206480
:102444006576696365200020776974682061646437
:10245400726573733A200053657474696E672072F1
:1024640065736F6C7574696F6E20746F20005265AC
:10247400736F6C7574696F6E2061637475616C6CD5
:10248400792073657420746F3A2000466F756E640A
:102494002067686F7374206465766963652061746E
:1024A40020002062757420636F756C64206E6F74F5
:1024B4002064657465637420616464726573732E4B
:1024C40020436865636B20706F77657220616E646A
:1024D400206361626C696E67002E00053737050062
:0A24E400000000630C460D5E0D00C1
:00000001FF
